:100000000C942A000C9447000C9447000C94470071
:100010000C94B50B0C94820B0C944F0B0C941C0B92
:100020000C94E90A0C94B60A0C94830A0C94500AB6
:100030000C9447000C94C9180C9451180C94470068
:100040000C9447000C9447000C9447000C94470014
:100050000C94470011241FBECFE5D8E0DEBFCDBF12
:1000600011E0A0E6B0E0E0E7F5E302C005900D92F4
:10007000AA36B107D9F711E0AAE6B1E001C01D9296
:10008000A538B107E1F70E943A190C94B61A0C94FE
:100090000000EF92FF920F931F937B018C0120E0F1
:1000A00030E040E05FE40E94F50388238CF0C80153
:1000B000B70120E030E040E05FE40E94C1010E940F
:1000C000B3049B01AC01205030404040504806C072
:1000D000C801B7010E94B3049B01AC01B901CA0178
:1000E0001F910F91FF90EF900895A0E0B0E0EBE733
:1000F000F0E00C947F1ADC012B01FA019C91923004
:1001000008F439C1EB018881823008F433C194309E
:1001100069F4843009F02FC111969C91119789815F
:10012000981709F428C1A0E6B0E025C1843009F48D
:1001300021C18230A9F4923009F01DC19A01AD01AC
:1001400088E0EA010990AE01E90109929E0181501F
:10015000C1F7E201898111969C918923818308C1AD
:10016000923009F407C112962D903C901397EB0141
:100170008A819B811496AD90BD90CD90DC901797AD
:10018000EC80FD800E811F819101281B390BB90184
:1001900037FF04C066277727621B730B6032710537
:1001A0000CF061C0121613066CF537014801062EDB
:1001B00004C096948794779467940A94D2F721E0C8
:1001C00030E040E050E004C0220F331F441F551FB1
:1001D0006A95D2F721503040404050402E213F21B7
:1001E00040235123211531054105510521F021E01E
:1001F00030E040E050E079018A01E628F72808293C
:1002000019293CC0232BD1F1260E371E350146019A
:10021000062E04C096948794779467940A94D2F734
:1002200021E030E040E050E004C0220F331F441FC3
:10023000551F6A95D2F721503040404050402A2146
:100240003B214C215D21211531054105510521F04E
:1002500021E030E040E050E059016A01A628B728CB
:10026000C828D9280BC0821593052CF01C01AA249C
:10027000BB24650103C0EE24FF24870111969C91E5
:10028000D20111968C91981709F445C0992339F041
:10029000A80197012A193B094C095D0906C0A6016E
:1002A00095012E193F09400B510B57FD08C01182D3
:1002B0003382228224833583468357831DC081E0A5
:1002C00081833382228288279927DC01821B930B4A
:1002D000A40BB50B84839583A683B7830DC0220F2F
:1002E000331F441F551F24833583468357838281E0
:1002F000938101979383828324813581468157813D
:10030000DA01C9010197A109B1098F5F9F4FAF4F72
:10031000BF4328F30BC0918333822282EA0CFB1C7B
:100320000C1D1D1DE482F5820683178383E0808304
:10033000248135814681578157FF1AC0C901AA27F8
:1003400097FDA095BA2F81709070A070B0705695EF
:10035000479537952795822B932BA42BB52B848318
:100360009583A683B7838281938101969383828349
:10037000DF0101C0D201CD01CDB7DEB7E2E10C94BF
:100380009B1AA0E2B0E0E7ECF1E00C948B1A6983D1
:100390007A838B839C832D833E834F835887E9E048
:1003A000EE2EF12CEC0EFD1ECE010196B7010E943F
:1003B0002B068E010F5E1F4FCE010596B8010E94DD
:1003C0002B068A8991E089278A8BC701B801AE0183
:1003D000475E5F4F0E9475000E945605A096E6E0BA
:1003E0000C94A71AA0E2B0E0E8EFF1E00C948B1AAD
:1003F00069837A838B839C832D833E834F835887C5
:10040000F9E0EF2EF12CEC0EFD1ECE010196B701A6
:100410000E942B068E010F5E1F4FCE010596B8017C
:100420000E942B06C701B801AE01475E5F4F0E94D4
:1004300075000E945605A096E6E00C94A71AA0E26B
:10044000B0E0E5E2F2E00C947F1A69837A838B8353
:100450009C832D833E834F835887CE010196BE0136
:10046000675F7F4F0E942B06CE010596BE016F5E2F
:100470007F4F0E942B069985923088F089898230BF
:10048000C8F0943019F4823051F404C0843029F457
:10049000923081F480E690E0C6C0923049F420E0CA
:1004A0009A858A89981321E02A87CE010996BBC0D4
:1004B000823049F420E09A858A89981321E02A8BBA
:1004C000CE014196B0C02D843E844F8458886D88FB
:1004D0007E888F88988CEE24FF248701AA24BB2471
:1004E000650140E050E060E070E0E0E0F0E0C10174
:1004F00081709070892BE9F0E60CF71C081D191D1E
:100500009A01AB012A0D3B1D4C1D5D1D80E090E062
:10051000A0E0B0E0E614F7040805190520F481E036
:1005200090E0A0E0B0E0BA01A901480F591F6A1F8E
:100530007B1FAA0CBB1CCC1CDD1C97FE08C081E0F5
:1005400090E0A0E0B0E0A82AB92ACA2ADB2A3196B6
:10055000E032F10549F0660C771C881C991C569412
:10056000479437942794C3CFFA85EA892B893C892D
:100570008B859C85280F391F2E5F3F4F17C0CA01FE
:1005800081709070892B61F016950795F794E79428
:1005900080E090E0A0E0B0E8E82AF92A0A2B1B2BC3
:1005A00076956795579547952F5F3F4F77FDE7CF36
:1005B0000CC0440F551F661F771F17FD4160EE0CDE
:1005C000FF1C001F111F21503040403090E05907A0
:1005D00090E0690790E4790760F32B8F3C8FDB0193
:1005E000CA018F779070A070B07080349105A1051A
:1005F000B10561F447FD0AC0E114F10401051105DC
:1006000029F0405C5F4F6F4F7F4F40781A8EFE1786
:1006100011F081E08A8F4D8F5E8F6F8F78A383E01A
:10062000898FCE0149960E945605A096E2E10C946E
:100630009B1AA8E1B0E0EFE1F3E00C94871A69831C
:100640007A838B839C832D833E834F835887B9E0C5
:10065000EB2EF12CEC0EFD1ECE010196B7010E948F
:100660002B068E010F5E1F4FCE010596B8010E942A
:100670002B062985223008F47EC03989323010F4E7
:10068000B8017CC08A859A8989278A87243011F02D
:10069000223031F4231709F06EC060E670E06EC0BE
:1006A000343039F41D861E861F86188A1C861B86E8
:1006B00004C0323021F484E08987B7015FC02B8504
:1006C0003C858B899C89281B390B3C872B87ED84C3
:1006D000FE840F851889AD88BE88CF88D88CEA142F
:1006E000FB040C051D0540F4EE0CFF1C001F111F40
:1006F000215030403C872B8720E030E040E050E044
:1007000080E090E0A0E0B0E460E070E0EA14FB0478
:100710000C051D0540F0282B392B4A2B5B2BEA18C2
:10072000FB080C091D09B695A79597958795EE0CC2
:10073000FF1C001F111F6F5F7F4F6F31710531F775
:10074000DA01C9018F779070A070B0708034910584
:10075000A105B10561F427FD0AC0E114F10401050A
:10076000110529F0205C3F4F4F4F5F4F20782D87B8
:100770003E874F87588BBE01675F7F4FCB010E943A
:1007800056056896EAE00C94A31AA8E1B0E0EBECF9
:10079000F3E00C948B1A69837A838B839C832D837B
:1007A0003E834F83588789E0E82EF12CEC0EFD1E26
:1007B000CE010196B7010E942B068E010F5E1F4FDE
:1007C000CE010596B8010E942B068985823040F043
:1007D0008989823028F0C701B8010E94A30601C0B0
:1007E0008FEF6896E6E00C94A71AA8E1B0E0EBEF73
:1007F000F3E00C948B1A69837A838B839C832D831B
:100800003E834F83588789E0E82EF12CEC0EFD1EC5
:10081000CE010196B7010E942B068E010F5E1F4F7D
:10082000CE010596B8010E942B068985823040F0E2
:100830008989823028F0C701B8010E94A30601C04F
:100840008FEF6896E6E00C94A71AA8E1B0E0EBE21F
:10085000F4E00C948B1A69837A838B839C832D83B9
:100860003E834F83588789E0E82EF12CEC0EFD1E65
:10087000CE010196B7010E942B068E010F5E1F4F1D
:10088000CE010596B8010E942B068985823040F082
:100890008989823028F0C701B8010E94A30601C0EF
:1008A00081E06896E6E00C94A71AA8E0B0E0EBE5DA
:1008B000F4E00C94881A9B01AC0183E08983DA018F
:1008C000C9018827B7FD83959927AA27BB27B82E8A
:1008D000211531054105510519F482E089833AC09B
:1008E0008823A9F0203080E0380780E0480780E8BE
:1008F000580729F460E070E080E09FEC30C0EE24FF
:10090000FF248701E21AF30A040B150B02C07901D8
:100910008A018EE1C82ED12CDC82CB82ED82FE8250
:100920000F831887C801B7010E94070501971816A1
:10093000190684F4082E04C0EE0CFF1C001F111FC2
:100940000A94D2F7ED82FE820F831887C81AD90A5B
:10095000DC82CB82BA82CE0101960E94560528968F
:10096000E9E00C94A41AACE0B0E0E9EBF4E00C94FC
:100970008F1A69837A838B839C83CE010196BE0193
:100980006B5F7F4F0E942B068D81823061F1823038
:1009900050F1843021F48E81882351F12EC02F81B3
:1009A000388537FD20C06E812F3131051CF066235C
:1009B000F9F023C08EE190E0821B930B29853A85E4
:1009C0004B855C8504C056954795379527958A9544
:1009D000D2F76623B1F050954095309521953F4F61
:1009E0004F4F5F4F0EC020E030E040E050E009C0C4
:1009F0002FEF3FEF4FEF5FE704C020E030E040E033
:100A000050E8B901CA012C96E2E00C94AB1AEF92BF
:100A1000FF920F931F937B018C0180E0E81680E02A
:100A2000F80681E0080780E0180788F48FEFE816E1
:100A3000F1040105110531F028F088E090E0A0E014
:100A4000B0E017C080E090E0A0E0B0E012C080E02D
:100A5000E81680E0F80680E0080781E0180728F033
:100A600088E190E0A0E0B0E004C080E190E0A0E088
:100A7000B0E020E230E040E050E0281B390B4A0BA8
:100A80005B0B04C016950795F794E7948A95D2F707
:100A9000F701E859FF4F8081281B310941095109AD
:100AA000C9011F910F91FF90EF900895DF92EF928F
:100AB000FF920F931F93FC01E480F580068117815C
:100AC000D1808081823048F480E090E0A0E1B0E005
:100AD000E82AF92A0A2B1B2BA5C0843009F49FC0F1
:100AE000823021F4EE24FF24870105C0E114F104D3
:100AF0000105110519F4E0E0F0E096C06281738110
:100B00009FEF623879070CF05BC022E83FEF261BAD
:100B1000370B2A3131052CF020E030E040E050E086
:100B20002AC0B801A701022E04C076956795579593
:100B300047950A94D2F781E090E0A0E0B0E004C0CD
:100B4000880F991FAA1FBB1F2A95D2F70197A109E9
:100B5000B1098E219F21A023B1230097A105B105E2
:100B600021F081E090E0A0E0B0E09A01AB01282BF9
:100B7000392B4A2B5B2BDA01C9018F779070A0705B
:100B8000B07080349105A105B10539F427FF09C083
:100B9000205C3F4F4F4F5F4F04C0215C3F4F4F4F92
:100BA0005F4FE0E0F0E02030A0E03A07A0E04A0725
:100BB000A0E45A0710F0E1E0F0E079018A0127C0D3
:100BC0006038710564F5FB01E158FF4FD801C7019A
:100BD0008F779070A070B07080349105A105B10539
:100BE00039F4E7FE0DC080E490E0A0E0B0E004C07E
:100BF0008FE390E0A0E0B0E0E80EF91E0A1F1B1F93
:100C000017FF05C016950795F794E794319687E08E
:100C100016950795F794E7948A95D1F705C0EE24C9
:100C2000FF248701EFEFF0E06E2F67956627679549
:100C3000902F9F77D794DD24D7948E2F8695492FB8
:100C4000462B582F5D29B701CA011F910F91FF90C4
:100C5000EF90DF900895FC01DB01408151812281FA
:100C6000622F6F7770E0221F2227221F9381892F26
:100C7000880F822B282F30E0991F9927991F1196F2
:100C80009C93119721153105A9F541155105610571
:100C9000710511F482E037C082E89FEF13969C93B0
:100CA0008E9312979A01AB0167E0220F331F441F06
:100CB000551F6A95D1F783E08C930DC0220F331F27
:100CC000441F551F12968D919C911397019713966F
:100CD0009C938E931297203080E0380780E048077D
:100CE00080E4580758F314962D933D934D935C93ED
:100CF000179708952F3F310579F441155105610586
:100D0000710519F484E08C93089564FF03C081E0B9
:100D10008C9312C01C9210C02F57304013963C93F6
:100D20002E93129783E08C9387E0440F551F661F24
:100D3000771F8A95D1F7706414964D935D936D93E8
:100D40007C93179708951F93DC01FB019C919230CF
:100D500008F447C08081823008F443C0943051F4D5
:100D600011961C91843099F58181682F70E0611B88
:100D700071093FC0843021F0923031F48230B9F1F2
:100D80008181882389F12DC011961C9111978230A1
:100D9000F1F081811817D9F412962D913C91139797
:100DA000828193818217930794F028173907BCF04A
:100DB00014968D919D910D90BC91A02D248135812B
:100DC00046815781281739074A075B0718F4112312
:100DD00041F00AC082179307A407B50740F4112316
:100DE00019F061E070E005C06FEF7FEF02C060E0D6
:100DF00070E0CB011F910895DF93CF930F92CDB791
:100E0000DEB7898389818E3621F5A3E5B0E0E3E57D
:100E1000F0E080818F7B8C93A3E5B0E0E3E5F0E028
:100E20008081877F8C93A3E5B0E0E3E5F0E08081EB
:100E3000887F8C93A3E5B0E0E3E5F0E080818260F9
:100E40008C93A9E5B0E0E9E5F0E0808181608C93C6
:100E500074C08981813759F5A3E5B0E0E3E5F0E09E
:100E6000808180648C93A3E5B0E0E3E5F0E08081CD
:100E700088608C93A3E5B0E0E3E5F0E080818F7EAD
:100E80008C93A3E5B0E0E3E5F0E0808180628C9391
:100E9000A3E5B0E0E3E5F0E08081887F8C93A3E5F3
:100EA000B0E0E3E5F0E0808182608C9346C0898108
:100EB0008037E9F4A3E5B0E0E3E5F0E08081806409
:100EC0008C93A3E5B0E0E3E5F0E08081877F8C932D
:100ED000A3E5B0E0E3E5F0E08081887F8C93A3E5B3
:100EE000B0E0E3E5F0E0808182608C9326C08981E8
:100EF0008F3619F5A3E5B0E0E3E5F0E080818F7B64
:100F00008C93A3E5B0E0E3E5F0E0808188608C930A
:100F1000A3E5B0E0E3E5F0E08081887F8C93A3E572
:100F2000B0E0E3E5F0E0808182608C93A9E5B0E079
:100F3000E9E5F0E0808182608C930F90CF91DF91A2
:100F40000895DF93CF930F92CDB7DEB78983898160
:100F5000813091F5AFE4B0E0EFE4F0E080818E7F86
:100F60008C93AFE4B0E0EFE4F0E080818D7F8C9370
:100F7000AEE4B0E0EEE4F0E08081877F8C93AEE4F5
:100F8000B0E0EEE4F0E080818F7E8C93AEE4B0E0E0
:100F9000EEE4F0E08081887F8C93AEE4B0E0EEE494
:100FA000F0E0808182608C93A9E5B0E0E9E5F0E0B3
:100FB000808184608C93A5C089818D30C9F5AFE4B0
:100FC000B0E0EFE4F0E080818E7F8C93AFE4B0E09E
:100FD000EFE4F0E0808182608C93AEE4B0E0EEE478
:100FE000F0E0808188608C93AEE4B0E0EEE4F0E065
:100FF000808180618C93AFE4B0E0EFE4F0E0808129
:101000008F7E8C93AFE4B0E0EFE4F0E0808180620B
:101010008C93AEE4B0E0EEE4F0E08081887F8C93C6
:10102000AEE4B0E0EEE4F0E0808182608C9369C0D1
:101030008981853091F5AFE4B0E0EFE4F0E08081A4
:101040008E7F8C93AFE4B0E0EFE4F0E080818D7FA1
:101050008C93AEE4B0E0EEE4F0E0808188608C93A5
:10106000AEE4B0E0EEE4F0E080818F7E8C93AEE4FD
:10107000B0E0EEE4F0E08081887F8C93AEE4B0E0F5
:10108000EEE4F0E0808182608C93A9E5B0E0E9E5D0
:10109000F0E0808180618C9334C089818E3089F545
:1010A000AFE4B0E0EFE4F0E080818E7F8C93AFE4BA
:1010B000B0E0EFE4F0E080818D7F8C93AEE4B0E0AF
:1010C000EEE4F0E0808188608C93AEE4B0E0EEE482
:1010D000F0E080818F7E8C93AEE4B0E0EEE4F0E04F
:1010E0008081887F8C93AEE4B0E0EEE4F0E0808114
:1010F00082608C93A9E5B0E0E9E5F0E0808188604A
:101100008C930F90CF91DF910895DF93CF9300D010
:101110000F92CDB7DEB789837B836A838981882369
:1011200059F48A819B81009739F08A819B81909341
:101130006B0180936A0161C08981813059F48A8191
:101140009B81009739F08A819B8190936D018093F8
:101150006C0153C08981823059F48A819B81009748
:1011600039F08A819B8190936F0180936E0145C015
:101170008981833059F48A819B81009739F08A8173
:101180009B81909371018093700137C08981843075
:1011900059F48A819B81009739F08A819B819093D1
:1011A00073018093720129C08981853059F48A8145
:1011B0009B81009739F08A819B8190937501809380
:1011C00074011BC08981863059F48A819B81009704
:1011D00039F08A819B8190937701809376010DC0CD
:1011E0008981873051F48A819B81009731F08A810F
:1011F0009B8190937901809378010F900F900F90CD
:10120000CF91DF910895DF93CF9300D000D00F925C
:10121000CDB7DEB789837B836A838981282F30E04D
:101220003D832C838C819D818130910571F02C81CF
:101230003D812230310581F08C819D81009781F4C0
:10124000E2E5F0E08A8180830BC0ECE4F0E08A8183
:101250009B819183808304C0E4E4F0E08A818083F1
:101260000F900F900F900F900F90CF91DF910895F6
:10127000DF93CF9300D000D00F92CDB7DEB7898334
:101280007B836A838981282F30E03D832C838C8186
:101290009D818230910571F12C813D812330310592
:1012A0002CF48C819D81009761F02EC02C813D81B2
:1012B0002330310589F08C819D818430910599F02E
:1012C00023C08A819B818F3F910509F0E8F4ECE50A
:1012D000F0E08A81808318C0EAE4F0E08A819B8193
:1012E0009183808311C0E8E4F0E08A819B8191833F
:1012F00080830AC08A819B818F3F910509F020F489
:10130000E3E4F0E08A8180830F900F900F900F90BC
:101310000F90CF91DF910895DF93CF9300D000D04D
:101320000F92CDB7DEB789837B836A838981282FAB
:1013300030E03D832C838C819D818230910571F159
:101340002C813D81233031052CF48C819D810097C7
:1013500061F02EC02C813D812330310589F08C81D4
:101360009D818430910599F023C08A819B818F3FB4
:10137000910509F0E8F4ECE5F0E08A81808318C07B
:10138000EAE4F0E08A819B819183808311C0E8E4E4
:10139000F0E08A819B81918380830AC08A819B814E
:1013A0008F3F910509F020F4E3E4F0E08A81808327
:1013B0000F900F900F900F900F90CF91DF910895A5
:1013C000DF93CF9300D0CDB7DEB79A838983E6E46D
:1013D000F0E089819A81918380830F900F90CF9163
:1013E000DF910895DF93CF93CDB7DEB7AEE4B0E0E1
:1013F000EEE4F0E0808180648C93A9E5B0E0E9E55B
:10140000F0E0808180628C93CF91DF910895DF932B
:10141000CF930F92CDB7DEB789838981813041F4B4
:10142000A9E5B0E0E9E5F0E0808180628C930AC034
:101430008981823039F4A9E5B0E0E9E5F0E0808106
:101440008F7D8C930F90CF91DF910895DF93CF9391
:10145000CDB7DEB7E6E4F0E080819181CF91DF91F6
:101460000895DF93CF930F92CDB7DEB7898389813B
:10147000813041F4AEE4B0E0EEE4F0E080818064DD
:101480008C930AC08981823039F4AEE4B0E0EEE496
:10149000F0E080818F7B8C930F90CF91DF91089546
:1014A0001F920F920FB60F9211242F933F934F93D9
:1014B0005F936F937F938F939F93AF93BF93EF93BC
:1014C000FF93DF93CF93CDB7DEB780916A01909100
:1014D0006B01009729F0E0916A01F0916B01099589
:1014E000CF91DF91FF91EF91BF91AF919F918F913C
:1014F0007F916F915F914F913F912F910F900FBE10
:101500000F901F9018951F920F920FB60F921124F3
:101510002F933F934F935F936F937F938F939F93FB
:10152000AF93BF93EF93FF93DF93CF93CDB7DEB726
:1015300080916C0190916D01009729F0E0916C0110
:10154000F0916D010995CF91DF91FF91EF91BF91DE
:10155000AF919F918F917F916F915F914F913F914B
:101560002F910F900FBE0F901F9018951F920F9202
:101570000FB60F9211242F933F934F935F936F9366
:101580007F938F939F93AF93BF93EF93FF93DF93DB
:10159000CF93CDB7DEB780916E0190916F01009728
:1015A00029F0E0916E01F0916F010995CF91DF91E3
:1015B000FF91EF91BF91AF919F918F917F916F912B
:1015C0005F914F913F912F910F900FBE0F901F9001
:1015D00018951F920F920FB60F9211242F933F93DD
:1015E0004F935F936F937F938F939F93AF93BF932B
:1015F000EF93FF93DF93CF93CDB7DEB78091700168
:1016000090917101009729F0E0917001F0917101C2
:101610000995CF91DF91FF91EF91BF91AF919F918C
:101620008F917F916F915F914F913F912F910F908B
:101630000FBE0F901F9018951F920F920FB60F922A
:1016400011242F933F934F935F936F937F938F93C7
:101650009F93AF93BF93EF93FF93DF93CF93CDB758
:10166000DEB78091720190917301009729F0E091AB
:101670007201F09173010995CF91DF91FF91EF9184
:10168000BF91AF919F918F917F916F915F914F919A
:101690003F912F910F900FBE0F901F9018951F92A2
:1016A0000F920FB60F9211242F933F934F935F9396
:1016B0006F937F938F939F93AF93BF93EF93FF931A
:1016C000DF93CF93CDB7DEB7809174019091750110
:1016D000009729F0E0917401F09175010995CF917F
:1016E000DF91FF91EF91BF91AF919F918F917F918A
:1016F0006F915F914F913F912F910F900FBE0F907F
:101700001F9018951F920F920FB60F9211242F93CE
:101710003F934F935F936F937F938F939F93AF9379
:10172000BF93EF93FF93DF93CF93CDB7DEB7809155
:10173000760190917701009729F0E0917601F09180
:1017400077010995CF91DF91FF91EF91BF91AF9113
:101750009F918F917F916F915F914F913F912F91C9
:101760000F900FBE0F901F9018951F920F920FB6FB
:101770000F9211242F933F934F935F936F937F9317
:101780008F939F93AF93BF93EF93FF93DF93CF9389
:10179000CDB7DEB78091780190917901009729F05B
:1017A000E0917801F09179010995CF91DF91FF9156
:1017B000EF91BF91AF919F918F917F916F915F91C9
:1017C0004F913F912F910F900FBE0F901F90189542
:1017D000DF93CF93CDB7DEB727970FB6F894DEBF70
:1017E0000FBECDBF89836A834B838981853008F022
:1017F000F4C08981882309F4F0C08A81883008F018
:10180000ECC08B81813009F070C08981282F30E0D5
:101810003F832E838E819F818230910551F12E81ED
:101820003F812330310534F48E819F8181309105D1
:1018300061F0D3C02E813F812330310571F18E815B
:101840009F8184309105E9F1C8C0AAE3B0E0EAE3E2
:10185000F0E08081482F8A81282F30E081E090E0FD
:10186000022E02C0880F991F0A94E2F7842B8C93F2
:10187000B4C0A7E3B0E0E7E3F0E08081482F8A81BD
:10188000282F30E081E090E0022E02C0880F991FDF
:101890000A94E2F7842B8C93A0C0A4E3B0E0E4E3C5
:1018A000F0E08081482F8A81282F30E081E090E0AD
:1018B000022E02C0880F991F0A94E2F7842B8C93A2
:1018C0008CC0A1E3B0E0E1E3F0E08081482F8A81A1
:1018D000282F30E081E090E0022E02C0880F991F8F
:1018E0000A94E2F7842B8C9378C08B81882309F0CB
:1018F00074C08981282F30E03D832C838C819D81A9
:101900008230910561F12C813D812330310534F421
:101910008C819D818130910569F05FC02C813D8172
:101920002330310589F18C819D818430910509F442
:1019300040C053C0AAE3B0E0EAE3F0E08081482F62
:101940008A81282F30E081E090E0022E02C0880FCB
:10195000991F0A94E2F7809584238C933EC0A7E3F5
:10196000B0E0E7E3F0E08081482F8A81282F30E063
:1019700081E090E0022E02C0880F991F0A94E2F7DE
:10198000809584238C9329C0A4E3B0E0E4E3F0E0E5
:101990008081482F8A81282F30E081E090E0022E5C
:1019A00002C0880F991F0A94E2F7809584238C93D4
:1019B00014C0A1E3B0E0E1E3F0E08081482F8A8128
:1019C000282F30E081E090E0022E02C0880F991F9E
:1019D0000A94E2F7809584238C9327960FB6F894A7
:1019E000DEBF0FBECDBFCF91DF910895DF93CF93C0
:1019F000CDB7DEB727970FB6F894DEBF0FBECDBFC9
:101A000089836A834B838981853008F0F3C089819B
:101A1000882309F4EFC08A81883008F0EBC08B81FD
:101A2000813009F06FC08981282F30E03F832E83F9
:101A30008E819F818230910551F12E813F8123302B
:101A4000310534F48E819F818130910561F05AC057
:101A50002E813F812330310571F18E819F81843049
:101A60009105E9F14FC0ABE3B0E0EBE3F0E080813A
:101A7000482F8A81282F30E081E090E0022E02C0BA
:101A8000880F991F0A94E2F7842B8C933BC0A8E33C
:101A9000B0E0E8E3F0E08081482F8A81282F30E031
:101AA00081E090E0022E02C0880F991F0A94E2F7AD
:101AB000842B8C9327C0A5E3B0E0E5E3F0E08081C0
:101AC000482F8A81282F30E081E090E0022E02C06A
:101AD000880F991F0A94E2F7842B8C9313C0A2E31A
:101AE000B0E0E2E3F0E08081482F8A81282F30E0E7
:101AF00081E090E0022E02C0880F991F0A94E2F75D
:101B0000842B8C938B81882309F074C08981282FC2
:101B100030E03D832C838C819D818230910561F181
:101B20002C813D812330310534F48C819D818130BD
:101B3000910569F05FC02C813D812330310589F129
:101B40008C819D818430910509F440C053C0ABE382
:101B5000B0E0EBE3F0E08081482F8A81282F30E06D
:101B600081E090E0022E02C0880F991F0A94E2F7EC
:101B7000809584238C933EC0A8E3B0E0E8E3F0E0D6
:101B80008081482F8A81282F30E081E090E0022E6A
:101B900002C0880F991F0A94E2F7809584238C93E2
:101BA00029C0A5E3B0E0E5E3F0E08081482F8A8119
:101BB000282F30E081E090E0022E02C0880F991FAC
:101BC0000A94E2F7809584238C9314C0A2E3B0E0DA
:101BD000E2E3F0E08081482F8A81282F30E081E025
:101BE00090E0022E02C0880F991F0A94E2F78095B8
:101BF00084238C9327960FB6F894DEBF0FBECDBF1B
:101C0000CF91DF910895DF93CF9300D000D00F9252
:101C1000CDB7DEB789836A838981853008F074C0C7
:101C20008981882309F470C08A81883008F06CC0EB
:101C30008981282F30E03D832C834C815D814230A7
:101C4000510549F18C819D818330910534F42C81BB
:101C50003D812130310561F057C04C815D814330B9
:101C6000510561F18C819D8184309105D1F14CC089
:101C7000E9E3F0E08081282F30E08A81882F90E02E
:101C8000A90102C0559547958A95E2F7CA01582FD8
:101C900051705B833BC0E6E3F0E08081282F30E0A9
:101CA0008A81882F90E0A90102C0559547958A95B1
:101CB000E2F7CA01582F51705B8328C0E3E3F0E0DC
:101CC0008081282F30E08A81882F90E0A90102C00E
:101CD000559547958A95E2F7CA01582F51705B8355
:101CE00015C0E0E3F0E08081282F30E08A81882F62
:101CF00090E0A90102C0559547958A95E2F7CA017F
:101D0000582F51705B8302C08FEF8B838B810F90B4
:101D10000F900F900F900F90CF91DF910895DF9368
:101D2000CF9300D000D0CDB7DEB789836A83898195
:101D30008530B0F58981882399F18981282F30E099
:101D40003C832B838B819C8182309105D9F02B8140
:101D50003C812330310534F48B819C8181309105A5
:101D600061F01EC02B813C812330310581F08B81D5
:101D70009C818430910581F013C0EAE3F0E08A8110
:101D800080830EC0E7E3F0E08A81808309C0E4E34A
:101D9000F0E08A81808304C0E1E3F0E08A818083FF
:101DA0000F900F900F900F90CF91DF910895DF93D8
:101DB000CF9300D000D0CDB7DEB789836A83898105
:101DC0008530B0F58981882399F18981282F30E009
:101DD0003C832B838B819C8182309105D9F02B81B0
:101DE0003C812330310534F48B819C818130910515
:101DF00061F01EC02B813C812330310581F08B8145
:101E00009C818430910581F013C0EBE3F0E08A817E
:101E100080830EC0E8E3F0E08A81808309C0E5E3B7
:101E2000F0E08A81808304C0E2E3F0E08A8180836D
:101E30000F900F900F900F90CF91DF910895DF9347
:101E4000CF9300D000D0CDB7DEB7898389818530AC
:101E5000B8F589818823A1F18981282F30E03C835E
:101E60002B838B819C8182309105D9F02B813C8121
:101E70002330310534F48B819C818130910561F0F0
:101E80001FC02B813C812330310581F08B819C81E7
:101E90008430910581F014C0E9E3F0E090819A83E9
:101EA00011C0E6E3F0E020812A830CC0E3E3F0E018
:101EB00030813A8307C0E0E3F0E080818A8302C08A
:101EC0009FEF9A838A810F900F900F900F90CF9180
:101ED000DF910895DF93CF93CDB7DEB784E064E060
:101EE00041E00E94E80B8DE00E94A10780E29EE4A1
:101EF0000E94E009CF91DF910895DF93CF9300D046
:101F00000F92CDB7DEB78B831A8219828B81882F0F
:101F100090E0AA2797FDA095BA2FBC01CD010E94A1
:101F20005504DC01CB01BC01CD0121E137EC41EBD3
:101F300050E40E941F02DC01CB01BC01CD0120E076
:101F400030E04AE754E40E94F201DC01CB01BC011D
:101F5000CD010E944900DC01CB019A83898329814C
:101F60003A8184E0B9010E9438090F900F900F90D8
:101F7000CF91DF910895DF93CF93CDB7DEB7A1E383
:101F8000B0E0E1E3F0E0808180628C93CF91DF915B
:101F90000895DF93CF93CDB7DEB7E4970FB6F894EB
:101FA000DEBF0FBECDBF9CAB8BAB4BA95CA9CA01FA
:101FB000880F991F9C01220F331F220F331F820F9E
:101FC000931F840F951F8C509E4F9AAB89ABA2E351
:101FD000B0E0E2E3F0E0808180628C9389A99AA965
:101FE000AA2797FDA095BA2FBC01CD010E945504E8
:101FF000DC01CB018DA79EA7AFA7B8AB6DA57EA5D1
:102000008FA598A92BEA3AEA4AE250E40E941F02FF
:10201000DC01CB0189A79AA7ABA7BCA769A57AA5C4
:102020008BA59CA520E030E040E85FE30E942504FA
:1020300088231CF481E088A791C069A57AA58BA5A7
:102040009CA520E030E04FE753E40E94C50318163A
:102050000CF07BC06DA57EA58FA598A920E030E08F
:102060004AE754E40E941903DC01CB018CA39DA331
:10207000AEA3BFA36CA17DA18EA19FA120E030E003
:102080004AEF54E40E941F02DC01CB0188A399A30C
:10209000AAA3BBA368A179A18AA19BA120E030E0FB
:1020A00040E85FE30E94250488232CF481E090E05F
:1020B0009F8F8E8F3FC068A179A18AA19BA120E04C
:1020C0003FEF4FE757E40E94C50318164CF56CA18B
:1020D0007DA18EA19FA120E030E040E251E40E946A
:1020E0001F02DC01CB01BC01CD010E944900DC01D3
:1020F000CB019F8F8E8F0FC088EC90E09D8F8C8FCF
:102100008C8D9D8D0197F1F79D8F8C8F8E8D9F8D7E
:1021100001979F8F8E8F8E8D9F8D009769F724C0BA
:1021200068A179A18AA19BA10E944900DC01CB0191
:102130009F8F8E8F8E8D9F8D9B8F8A8F8A8D9B8D8B
:102140000197F1F79B8F8A8F0FC069A57AA58BA5A0
:102150009CA50E944900DC01CB0188A788A5898F36
:10216000898D8A95F1F7898FA2E3B0E0E2E3F0E090
:1021700080818F7D8C9320E23EE489A99AA9A901F0
:10218000481B590BCA01AA2797FDA095BA2FBC017D
:10219000CD010E945504DC01CB018D8B9E8BAF8B52
:1021A000B88F6D897E898F89988D2BEA3AEA4AE249
:1021B00050E40E941F02DC01CB01898B9A8BAB8B10
:1021C000BC8B69897A898B899C8920E030E040E862
:1021D0005FE30E94250488231CF481E0888B91C072
:1021E00069897A898B899C8920E030E04FE753E444
:1021F0000E94C50318160CF07BC06D897E898F89FB
:10220000988D20E030E04AE754E40E941903DC0195
:10221000CB018C879D87AE87BF876C857D858E853A
:102220009F8520E030E04AEF54E40E941F02DC0169
:10223000CB0188879987AA87BB87688579858A8536
:102240009B8520E030E040E85FE30E94250488237E
:102250002CF481E090E09F838E833FC06885798570
:102260008A859B8520E03FEF4FE757E40E94C50336
:1022700018164CF56C857D858E859F8520E030E0B5
:1022800040E251E40E941F02DC01CB01BC01CD0100
:102290000E944900DC01CB019F838E830FC088EC34
:1022A00090E09D838C838C819D810197F1F79D83C4
:1022B0008C838E819F8101979F838E838E819F81E6
:1022C000009769F724C0688579858A859B850E9477
:1022D0004900DC01CB019F838E838E819F819B838C
:1022E0008A838A819B810197F1F79B838A830FC040
:1022F00069897A898B899C890E944900DC01CB011C
:10230000888B8889898389818A95F1F78983E49606
:102310000FB6F894DEBF0FBECDBFCF91DF91089509
:10232000DF93CF93CDB7DEB72F970FB6F894DEBF0C
:102330000FBECDBF8F8783E062E040E00E94F60CC5
:1023400083E061E040E00E94F60C84E06F850E942B
:10235000D70E83E060E041E00E94F60C80E090E060
:10236000A0E8BFE38B879C87AD87BE876B857C85A4
:102370008D859E8520E030E04AEF54E40E941F02E4
:10238000DC01CB018F839887A987BA876F81788515
:1023900089859A8520E030E040E85FE30E942504CB
:1023A00088232CF481E090E09E838D833FC06F8171
:1023B000788589859A8520E03FEF4FE757E40E94B2
:1023C000C50318164CF56B857C858D859E8520E0B0
:1023D00030E040E251E40E941F02DC01CB01BC016D
:1023E000CD010E944900DC01CB019E838D830FC08B
:1023F00088EC90E09C838B838B819C810197F1F723
:102400009C838B838D819E8101979E838D838D819B
:102410009E81009769F714C06F81788589859A85B8
:102420000E944900DC01CB019E838D838D819E81BA
:102430009A83898389819A810197F1F79A838983A5
:1024400083E060E040E00E94F60C2F960FB6F8940F
:10245000DEBF0FBECDBFCF91DF910895DF93CF9345
:10246000CDB7DEB72F970FB6F894DEBF0FBECDBF46
:102470008F8783E062E041E00E94F60C83E061E038
:1024800040E00E94F60C84E06F850E94D70E83E046
:1024900060E041E00E94F60C80E090E0A0E8BFE33D
:1024A0008B879C87AD87BE876B857C858D859E8558
:1024B00020E030E04AEF54E40E941F02DC01CB012F
:1024C0008F839887A987BA876F81788589859A8550
:1024D00020E030E040E85FE30E94250488232CF4EC
:1024E00081E090E09E838D833FC06F8178858985F0
:1024F0009A8520E03FEF4FE757E40E94C503181686
:102500004CF56B857C858D859E8520E030E040E232
:1025100051E40E941F02DC01CB01BC01CD010E94ED
:102520004900DC01CB019E838D830FC088EC90E0D5
:102530009C838B838B819C810197F1F79C838B8398
:102540008D819E8101979E838D838D819E810097D1
:1025500069F714C06F81788589859A850E94490042
:10256000DC01CB019E838D838D819E819A8389833B
:1025700089819A810197F1F79A83898383E060E0EA
:1025800040E00E94F60C2F960FB6F894DEBF0FBE07
:10259000CDBFCF91DF910895DF93CF93CDB7DEB755
:1025A000E8970FB6F894DEBF0FBECDBF84E06FEFA3
:1025B0000E948F0E83E062E041E00E94E80B83E01E
:1025C00061E041E00E94E80B83E060E041E00E94AE
:1025D000E80B80E090E0ACE0B2E48DAB9EABAFAB3B
:1025E000B8AF6DA97EA98FA998AD20E030E04AEF81
:1025F00054E40E941F02DC01CB0189AB9AABABAB68
:10260000BCAB69A97AA98BA99CA920E030E040E87D
:102610005FE30E94250488232CF481E090E098ABCE
:102620008FA73FC069A97AA98BA99CA920E03FEF99
:102630004FE757E40E94C50318164CF56DA97EA913
:102640008FA998AD20E030E040E251E40E941F02E3
:10265000DC01CB01BC01CD010E944900DC01CB01B2
:1026600098AB8FA70FC088EC90E09EA78DA78DA593
:102670009EA50197F1F79EA78DA78FA598A9019711
:1026800098AB8FA78FA598A9009769F714C069A97F
:102690007AA98BA99CA90E944900DC01CB0198ABC7
:1026A0008FA78FA598A99CA78BA78BA59CA5019701
:1026B000F1F79CA78BA788E30E94901180E090E03F
:1026C000A0E8BFE38FA398A7A9A7BAA76FA178A591
:1026D00089A59AA520E030E04AEF54E40E941F0249
:1026E000DC01CB018BA39CA3ADA3BEA36BA17CA1FA
:1026F0008DA19EA120E030E040E85FE30E94250428
:1027000088232CF481E090E09AA389A33FC06BA1B9
:102710007CA18DA19EA120E03FEF4FE757E40E94EE
:10272000C50318164CF56FA178A589A59AA520E0D8
:1027300030E040E251E40E941F02DC01CB01BC0109
:10274000CD010E944900DC01CB019AA389A30FC0EF
:1027500088EC90E098A38F8F8F8D98A10197F1F767
:1027600098A38F8F89A19AA101979AA389A389A180
:102770009AA1009769F714C06BA17CA18DA19EA1BD
:102780000E944900DC01CB019AA389A389A19AA1E7
:102790009E8F8D8F8D8D9E8D0197F1F79E8F8D8FE2
:1027A0008CE00E94901180E090E0A0E8BFE3898F68
:1027B0009A8FAB8FBC8F698D7A8D8B8D9C8D20E02D
:1027C00030E04AEF54E40E941F02DC01CB018D8B04
:1027D0009E8BAF8BB88F6D897E898F89988D20E015
:1027E00030E040E85FE30E94250488232CF481E078
:1027F00090E09C8B8B8B3FC06D897E898F89988DF3
:1028000020E03FEF4FE757E40E94C50318164CF550
:10281000698D7A8D8B8D9C8D20E030E040E251E413
:102820000E941F02DC01CB01BC01CD010E944900C6
:10283000DC01CB019C8B8B8B0FC088EC90E09A8BDA
:10284000898B89899A890197F1F79A8B898B8B8972
:102850009C8901979C8B8B8B8B899C89009769F74E
:1028600014C06D897E898F89988D0E944900DC0192
:10287000CB019C8B8B8B8B899C89988B8F878F85C9
:1028800098890197F1F7988B8F8781E00E949011CA
:1028900080E090E0A0E0B0E48B879C87AD87BE87A6
:1028A0006B857C858D859E8520E030E04AEF54E481
:1028B0000E941F02DC01CB018F839887A987BA870A
:1028C0006F81788589859A8520E030E040E85FE374
:1028D0000E94250488232CF481E090E09E838D8360
:1028E0003FC06F81788589859A8520E03FEF4FE76B
:1028F00057E40E94C50318164CF56B857C858D85C1
:102900009E8520E030E040E251E40E941F02DC019D
:10291000CB01BC01CD010E944900DC01CB019E83AB
:102920008D830FC088EC90E09C838B838B819C818E
:102930000197F1F79C838B838D819E8101979E8304
:102940008D838D819E81009769F714C06F81788592
:1029500089859A850E944900DC01CB019E838D8385
:102960008D819E819A83898389819A810197F1F76C
:102970009A838983E8960FB6F894DEBF0FBECDBF69
:10298000CF91DF910895DF93CF9300D00F92CDB711
:10299000DEB79B838A8319820EC08981282F30E09D
:1029A0008A819B81FC01E20FF31F80810E942E121D
:1029B00089818F5F89838981282F30E08A819B817B
:1029C000FC01E20FF31F8081882339F70F900F90ED
:1029D0000F90CF91DF910895DF93CF9300D00F92A6
:1029E000CDB7DEB78A836B8319828A81882319F475
:1029F0008B81898306C08A81813019F48B81805C48
:102A0000898389818068898389810E9490110F90D0
:102A10000F900F90CF91DF910895DF93CF93CDB7B3
:102A2000DEB727970FB6F894DEBF0FBECDBF9C83ED
:102A30008B836D834E832F831A8219828D81882F19
:102A400090E0880F991F880F991F880F991F89831D
:102A50008981805C0E9490111A820EC08A81282F81
:102A600030E08B819C81FC01E20FF31F80810E948A
:102A70002E128A818F5F8A838A81883078F38E81D3
:102A80006F810E94EC148D810E942E1227960FB642
:102A9000F894DEBF0FBECDBFCF91DF910895DF93D5
:102AA000CF93CDB7DEB761970FB6F894DEBF0FBEF8
:102AB000CDBF6E877F87888B998B8FEF8A838A81C2
:102AC0008F5F8A838E859F85A889B9892AE030E047
:102AD00040E050E0BC01CD010E945D1ADC01CB0159
:102AE0008B838A81282F332727FD30958B81482FB0
:102AF000405DCE010496FC01E20FF31F40838E85FA
:102B00009F85A889B9892AE030E040E050E0BC0107
:102B1000CD010E945D1ADA01C9018E879F87A88BBB
:102B2000B98B8E859F85A889B9890097A105B105C4
:102B300031F68A81898310C08981282F332727FDA8
:102B40003095CE010496FC01E20FF31F80810E94B4
:102B50002E12898181508983898188236CF761963F
:102B60000FB6F894DEBF0FBECDBFCF91DF910895B1
:102B7000DF93CF93CDB7DEB781E00E949011CF9164
:102B8000DF910895DF93CF93CDB7DEB70E94121681
:102B9000CF91DF910895DF93CF9300D0CDB7DEB70B
:102BA0009A83898389819A810E945B160F900F9086
:102BB000CF91DF910895DF93CF9300D0CDB7DEB7EB
:102BC0009A83898389819A81009721F089819A81EA
:102BD0000E94FB160F900F90CF91DF910895DF9325
:102BE000CF930F92CDB7DEB71982CE0101960E9426
:102BF000711789810F90CF91DF910895DF93CF9363
:102C000000D00F92CDB7DEB79A8389836B83898119
:102C10009A816B810E94E0170F900F900F90CF91D7
:102C2000DF910895DF93CF9300D00F92CDB7DEB739
:102C30001B821A8219828B8180688B838B818F7BA8
:102C40008B83AAE2B0E0EAE2F0E080818D7F8C9392
:102C500083E390E09A8389838B818F7C8B838B8144
:102C6000877F8B838B81897F8B838B8186608B832E
:102C7000E0E4F0E08B818083E9E2F0E08981808309
:102C8000E0E4F0E089819A81892F99278083AAE284
:102C9000B0E0EAE2F0E0808188608C93AAE2B0E0E4
:102CA000EAE2F0E0808180618C930F900F900F90AA
:102CB000CF91DF910895DF93CF93CDB7DEB72797FC
:102CC0000FB6F894DEBF0FBECDBF9F838E831D82EB
:102CD00019821A821B821C8280916801813009F05E
:102CE00045C082E0809368010BC089819A81AB81E5
:102CF000BC810196A11DB11D89839A83AB83BC83DE
:102D0000EBE2F0E08081829586958770882F90E0D5
:102D100081709070009761F489819A81AB81BC8148
:102D2000803523EC920720E0A20720E0B207E8F20A
:102D300089819A81AB81BC81803523EC920720E0A8
:102D4000A20720E0B20719F481E08D8311C0ABE245
:102D5000B0E0EBE2F0E0808180628C93ECE2F0E0A6
:102D60008E81808381E08093680102C083E08D833F
:102D70008D8127960FB6F894DEBF0FBECDBFCF91E1
:102D8000DF910895DF93CF9300D000D00F92CDB79D
:102D9000DEB79B838A837D836C831982809168016F
:102DA000813001F58C819D81009719F482E089833F
:102DB00019C082E08093680181E0809380018C815A
:102DC0009D8190937B0180937A018A819B8190936E
:102DD0007D0180937C01AAE2B0E0EAE2F0E080812C
:102DE00080628C9389810F900F900F900F900F90BD
:102DF000CF91DF910895DF93CF9300D000D0CDB76E
:102E0000DEB79C838B831A8219828B819C81009709
:102E100099F482E08A831BC08981282F30E08B815E
:102E20009C81FC01E20FF31F8081882F90E00E94BB
:102E30005B1689818F5F89838981282F30E08B81A0
:102E40009C81FC01E20FF31F8081882329F78A818E
:102E50000F900F900F900F90CF91DF910895DF9317
:102E6000CF9300D000D00F92CDB7DEB79B838A837B
:102E70007D836C83198280916801813039F58A8164
:102E80009B81009721F08C819D81009719F482E04D
:102E900089831EC082E08093680182E08093800174
:102EA0008A819B8190937F0180937E018C819D819B
:102EB00090937B0180937A0110928101AAE2B0E0A5
:102EC000EAE2F0E0808180628C9302C083E0898333
:102ED00089810F900F900F900F900F90CF91DF91FD
:102EE0000895DF93CF9300D00F92CDB7DEB79B83C9
:102EF0008A831982809168018130C9F482E08093CD
:102F00006801EBE2F0E080818823DCF7ABE2B0E01F
:102F1000EBE2F0E0808180688C93ECE2F0E080816D
:102F2000EA81FB81808381E08093680102C083E0B5
:102F3000898389810F900F900F90CF91DF91089531
:102F4000DF93CF9300D000D00F92CDB7DEB79B8335
:102F50008A837D836C83198280916801813029F591
:102F60008A819B81009721F08C819D81009719F4C3
:102F700082E089831CC082E08093680181E08093B5
:102F8000800180918301909184019B838A838C814D
:102F90009D8190937B0180937A01AAE2B0E0EAE2FE
:102FA000F0E0808180688C9302C083E0898389810E
:102FB0000F900F900F900F900F90CF91DF91089589
:102FC000DF93CF9300D000D00F92CDB7DEB79C83B4
:102FD0008B836D831A8219828B819C81009711F4F7
:102FE00082E08A8319820CC08981282F30E08B818E
:102FF0009C81820F931F0E94711789818F5F898343
:1030000099818D81981780F38A810F900F900F908E
:103010000F900F90CF91DF910895DF93CF9300D061
:1030200000D000D0CDB7DEB79B838A836C835E83EC
:103030004D83198280916801813039F58A819B81A5
:10304000009721F08D819E81009719F482E0898399
:103050001EC082E08093680182E08093800110921C
:10306000810180918301909184019B838A838D816A
:103070009E8190937B0180937A01AAE2B0E0EAE21C
:10308000F0E0808180688C9302C083E0898389812D
:1030900026960FB6F894DEBF0FBECDBFCF91DF915D
:1030A00008951F920F920FB60F9211242F933F9302
:1030B0004F935F936F937F938F939F93AF93BF9340
:1030C000EF93FF93DF93CF93CDB7DEB7809180016D
:1030D0008130B9F4ECE2F0E080917C0190917D01C7
:1030E000808381E080936801AAE2B0E0EAE2F0E048
:1030F00080818F7D8C93E0917A01F0917B0109951D
:1031000035C080918001823089F5ACE2B0E0209139
:103110007E0130917F0180918101882F90E0F9013B
:10312000E80FF91F80818C93809181018F5F8093DC
:10313000810120917E0130917F0180918101882F52
:1031400090E0F901E80FF91F8081882379F481E08C
:1031500080936801AAE2B0E0EAE2F0E080818F7D2E
:103160008C93E0917A01F0917B010995CF91DF91E9
:10317000FF91EF91BF91AF919F918F917F916F914F
:103180005F914F913F912F910F900FBE0F901F9025
:1031900018951F920F920FB60F9211242F933F9301
:1031A0004F935F936F937F938F939F93AF93BF934F
:1031B000EF93FF93DF93CF93CDB7DEB7809180017C
:1031C0008130C1F4A0918301B0918401ECE2F0E080
:1031D00080818C9381E080936801AAE2B0E0EAE20A
:1031E000F0E080818F778C93E0917A01F0917B0100
:1031F00009952DC080918001823049F5209183018D
:103200003091840180918101882F90E0D901A80F2D
:10321000B91FECE2F0E080818C93809181018F5F97
:10322000809381019091810180918201981779F4B6
:1032300081E080936801AAE2B0E0EAE2F0E08081F8
:103240008F778C93E0917A01F0917B010995CF9172
:10325000DF91FF91EF91BF91AF919F918F917F91FE
:103260006F915F914F913F912F910F900FBE0F90F3
:103270001F901895DF93CF93CDB7DEB76D970FB63C
:10328000F894DEBF0FBECDBF0E94C2150E946A0F28
:1032900083E067E041E00E94E80B83E066E041E004
:1032A0000E94E80B0E94EF158D8F8D8D8F3609F0EF
:1032B00080C083E067E041E00E94F60C83E066E0B6
:1032C00040E00E94F60C84EB0E947D0F80E090E0CD
:1032D000A8ECB2E4898F9A8FAB8FBC8F698D7A8D01
:1032E0008B8D9C8D20E030E04AEF54E40E941F0259
:1032F000DC01CB018D8B9E8BAF8BB88F6D897E8966
:103300008F89988D20E030E040E85FE30E9425043B
:1033100088232CF481E090E09C8B8B8B3FC06D89DF
:103320007E898F89988D20E03FEF4FE757E40E9418
:10333000C50318164CF5698D7A8D8B8D9C8D20E018
:1033400030E040E251E40E941F02DC01CB01BC01ED
:10335000CD010E944900DC01CB019C8B8B8B0FC0FF
:1033600088EC90E09A8B898B89899A890197F1F78B
:103370009A8B898B8B899C8901979C8B8B8B8B89F2
:103380009C89009769F78ECF6D897E898F89988D8A
:103390000E944900DC01CB019C8B8B8B8B899C8923
:1033A000988B8F878F8598890197F1F7988B8F87F6
:1033B00079CF8D8D833609F075CF83E067E040E0EB
:1033C0000E94F60C83E066E041E00E94F60C80E08B
:1033D0000E947D0F80E090E0A8ECB2E48B879C8790
:1033E000AD87BE876B857C858D859E8520E030E02E
:1033F0004AEF54E40E941F02DC01CB018F839887BF
:10340000A987BA876F81788589859A8520E030E021
:1034100040E85FE30E94250488232CF481E090E0DB
:103420009E838D833FC06F81788589859A8520E052
:103430003FEF4FE757E40E94C50318164CF56B8524
:103440007C858D859E8520E030E040E251E40E943D
:103450001F02DC01CB01BC01CD010E944900DC014F
:10346000CB019E838D830FC088EC90E09C838B837F
:103470008B819C810197F1F79C838B838D819E8149
:1034800001979E838D838D819E81009769F70ACF76
:103490006F81788589859A850E944900DC01CB017E
:1034A0009E838D838D819E819A83898389819A8170
:1034B0000197F1F79A838983F5CEA1E21A2EAA1B10
:1034C000BB1BFD010DC0AA1FBB1FEE1FFF1FA217D4
:1034D000B307E407F50720F0A21BB30BE40BF50BD1
:1034E000661F771F881F991F1A9469F7609570955A
:1034F000809590959B01AC01BD01CF0108952F925D
:103500003F924F925F926F927F928F929F92AF9273
:10351000BF92CF92DF92EF92FF920F931F93CF93C0
:10352000DF93CDB7DEB7CA1BDB0B0FB6F894DEBF57
:103530000FBECDBF09942A88398848885F846E847D
:103540007D848C849B84AA84B984C884DF80EE80C7
:10355000FD800C811B81AA81B981CE0FD11D0FB6D0
:10356000F894DEBF0FBECDBFED010895F894FFCFF4
:10357000000000000000000000010202030303033A
:1035800004040404040404040505050505050505F3
:1035900005050505050505050606060606060606D3
:1035A00006060606060606060606060606060606BB
:1035B00006060606060606060707070707070707A3
:1035C000070707070707070707070707070707078B
:1035D000070707070707070707070707070707077B
:1035E000070707070707070707070707070707076B
:1035F0000707070707070707080808080808080853
:10360000080808080808080808080808080808083A
:10361000080808080808080808080808080808082A
:10362000080808080808080808080808080808081A
:10363000080808080808080808080808080808080A
:1036400008080808080808080808080808080808FA
:1036500008080808080808080808080808080808EA
:1036600008080808080808080808080808080808DA
:0A367000080808080808080801000F
:00000001FF
